{
  "_format": "hh-sol-artifact-1",
  "contractName": "MyEpicNFT",
  "sourceName": "contracts/MyEpicNFT.sol",
  "abi": [
    {
      "inputs": [],
      "stateMutability": "nonpayable",
      "type": "constructor"
    },
    {
      "anonymous": false,
      "inputs": [
        {
          "indexed": true,
          "internalType": "address",
          "name": "owner",
          "type": "address"
        },
        {
          "indexed": true,
          "internalType": "address",
          "name": "approved",
          "type": "address"
        },
        {
          "indexed": true,
          "internalType": "uint256",
          "name": "tokenId",
          "type": "uint256"
        }
      ],
      "name": "Approval",
      "type": "event"
    },
    {
      "anonymous": false,
      "inputs": [
        {
          "indexed": true,
          "internalType": "address",
          "name": "owner",
          "type": "address"
        },
        {
          "indexed": true,
          "internalType": "address",
          "name": "operator",
          "type": "address"
        },
        {
          "indexed": false,
          "internalType": "bool",
          "name": "approved",
          "type": "bool"
        }
      ],
      "name": "ApprovalForAll",
      "type": "event"
    },
    {
      "anonymous": false,
      "inputs": [
        {
          "indexed": false,
          "internalType": "address",
          "name": "sender",
          "type": "address"
        },
        {
          "indexed": false,
          "internalType": "uint256",
          "name": "tokenId",
          "type": "uint256"
        }
      ],
      "name": "NewEpicNFTMinted",
      "type": "event"
    },
    {
      "anonymous": false,
      "inputs": [
        {
          "indexed": true,
          "internalType": "address",
          "name": "from",
          "type": "address"
        },
        {
          "indexed": true,
          "internalType": "address",
          "name": "to",
          "type": "address"
        },
        {
          "indexed": true,
          "internalType": "uint256",
          "name": "tokenId",
          "type": "uint256"
        }
      ],
      "name": "Transfer",
      "type": "event"
    },
    {
      "inputs": [
        {
          "internalType": "address",
          "name": "to",
          "type": "address"
        },
        {
          "internalType": "uint256",
          "name": "tokenId",
          "type": "uint256"
        }
      ],
      "name": "approve",
      "outputs": [],
      "stateMutability": "nonpayable",
      "type": "function"
    },
    {
      "inputs": [
        {
          "internalType": "address",
          "name": "owner",
          "type": "address"
        }
      ],
      "name": "balanceOf",
      "outputs": [
        {
          "internalType": "uint256",
          "name": "",
          "type": "uint256"
        }
      ],
      "stateMutability": "view",
      "type": "function"
    },
    {
      "inputs": [
        {
          "internalType": "uint256",
          "name": "tokenId",
          "type": "uint256"
        }
      ],
      "name": "getApproved",
      "outputs": [
        {
          "internalType": "address",
          "name": "",
          "type": "address"
        }
      ],
      "stateMutability": "view",
      "type": "function"
    },
    {
      "inputs": [
        {
          "internalType": "address",
          "name": "owner",
          "type": "address"
        },
        {
          "internalType": "address",
          "name": "operator",
          "type": "address"
        }
      ],
      "name": "isApprovedForAll",
      "outputs": [
        {
          "internalType": "bool",
          "name": "",
          "type": "bool"
        }
      ],
      "stateMutability": "view",
      "type": "function"
    },
    {
      "inputs": [],
      "name": "makeAnEpicNFT",
      "outputs": [],
      "stateMutability": "nonpayable",
      "type": "function"
    },
    {
      "inputs": [],
      "name": "name",
      "outputs": [
        {
          "internalType": "string",
          "name": "",
          "type": "string"
        }
      ],
      "stateMutability": "view",
      "type": "function"
    },
    {
      "inputs": [
        {
          "internalType": "uint256",
          "name": "tokenId",
          "type": "uint256"
        }
      ],
      "name": "ownerOf",
      "outputs": [
        {
          "internalType": "address",
          "name": "",
          "type": "address"
        }
      ],
      "stateMutability": "view",
      "type": "function"
    },
    {
      "inputs": [
        {
          "internalType": "uint256",
          "name": "tokenId",
          "type": "uint256"
        }
      ],
      "name": "pickRandomFirstWord",
      "outputs": [
        {
          "internalType": "string",
          "name": "",
          "type": "string"
        }
      ],
      "stateMutability": "view",
      "type": "function"
    },
    {
      "inputs": [
        {
          "internalType": "uint256",
          "name": "tokenId",
          "type": "uint256"
        }
      ],
      "name": "pickRandomSecondWord",
      "outputs": [
        {
          "internalType": "string",
          "name": "",
          "type": "string"
        }
      ],
      "stateMutability": "view",
      "type": "function"
    },
    {
      "inputs": [
        {
          "internalType": "uint256",
          "name": "tokenId",
          "type": "uint256"
        }
      ],
      "name": "pickRandomThirdWord",
      "outputs": [
        {
          "internalType": "string",
          "name": "",
          "type": "string"
        }
      ],
      "stateMutability": "view",
      "type": "function"
    },
    {
      "inputs": [
        {
          "internalType": "address",
          "name": "from",
          "type": "address"
        },
        {
          "internalType": "address",
          "name": "to",
          "type": "address"
        },
        {
          "internalType": "uint256",
          "name": "tokenId",
          "type": "uint256"
        }
      ],
      "name": "safeTransferFrom",
      "outputs": [],
      "stateMutability": "nonpayable",
      "type": "function"
    },
    {
      "inputs": [
        {
          "internalType": "address",
          "name": "from",
          "type": "address"
        },
        {
          "internalType": "address",
          "name": "to",
          "type": "address"
        },
        {
          "internalType": "uint256",
          "name": "tokenId",
          "type": "uint256"
        },
        {
          "internalType": "bytes",
          "name": "_data",
          "type": "bytes"
        }
      ],
      "name": "safeTransferFrom",
      "outputs": [],
      "stateMutability": "nonpayable",
      "type": "function"
    },
    {
      "inputs": [
        {
          "internalType": "address",
          "name": "operator",
          "type": "address"
        },
        {
          "internalType": "bool",
          "name": "approved",
          "type": "bool"
        }
      ],
      "name": "setApprovalForAll",
      "outputs": [],
      "stateMutability": "nonpayable",
      "type": "function"
    },
    {
      "inputs": [
        {
          "internalType": "bytes4",
          "name": "interfaceId",
          "type": "bytes4"
        }
      ],
      "name": "supportsInterface",
      "outputs": [
        {
          "internalType": "bool",
          "name": "",
          "type": "bool"
        }
      ],
      "stateMutability": "view",
      "type": "function"
    },
    {
      "inputs": [],
      "name": "symbol",
      "outputs": [
        {
          "internalType": "string",
          "name": "",
          "type": "string"
        }
      ],
      "stateMutability": "view",
      "type": "function"
    },
    {
      "inputs": [
        {
          "internalType": "uint256",
          "name": "tokenId",
          "type": "uint256"
        }
      ],
      "name": "tokenURI",
      "outputs": [
        {
          "internalType": "string",
          "name": "",
          "type": "string"
        }
      ],
      "stateMutability": "view",
      "type": "function"
    },
    {
      "inputs": [
        {
          "internalType": "address",
          "name": "from",
          "type": "address"
        },
        {
          "internalType": "address",
          "name": "to",
          "type": "address"
        },
        {
          "internalType": "uint256",
          "name": "tokenId",
          "type": "uint256"
        }
      ],
      "name": "transferFrom",
      "outputs": [],
      "stateMutability": "nonpayable",
      "type": "function"
    }
  ],
  "bytecode": "0x6080604052600a60075560405180610160016040528061012f8152602001620045a161012f9139600990805190602001906200003d92919062000683565b506040518060c001604052806040518060400160405280600581526020017f535550455200000000000000000000000000000000000000000000000000000081525081526020016040518060400160405280600681526020017f4d4153544552000000000000000000000000000000000000000000000000000081525081526020016040518060400160405280600581526020017f475245415400000000000000000000000000000000000000000000000000000081525081526020016040518060400160405280600781526020017f5350454349414c0000000000000000000000000000000000000000000000000081525081526020016040518060400160405280600681526020017f4e4f524d414c000000000000000000000000000000000000000000000000000081525081526020016040518060400160405280600681526020017f4c4547454e440000000000000000000000000000000000000000000000000000815250815250600a906006620001bb92919062000714565b506040518060c001604052806040518060400160405280600481526020017f464952450000000000000000000000000000000000000000000000000000000081525081526020016040518060400160405280600381526020017f494345000000000000000000000000000000000000000000000000000000000081525081526020016040518060400160405280600381526020017f414952000000000000000000000000000000000000000000000000000000000081525081526020016040518060400160405280600581526020017f454152544800000000000000000000000000000000000000000000000000000081525081526020016040518060400160405280600781526020017f5448554e4445520000000000000000000000000000000000000000000000000081525081526020016040518060400160405280600381526020017f474f440000000000000000000000000000000000000000000000000000000000815250815250600b9060066200033992919062000714565b506040518060c001604052806040518060400160405280600681526020017f4d4f4e4b4559000000000000000000000000000000000000000000000000000081525081526020016040518060400160405280600781526020017f454c4546414e540000000000000000000000000000000000000000000000000081525081526020016040518060400160405280600581526020017f544947455200000000000000000000000000000000000000000000000000000081525081526020016040518060400160405280600481526020017f4c494f4e0000000000000000000000000000000000000000000000000000000081525081526020016040518060400160405280600481526020017f424952440000000000000000000000000000000000000000000000000000000081525081526020016040518060400160405280600781526020017f50484f454e495800000000000000000000000000000000000000000000000000815250815250600c906006620004b792919062000714565b50348015620004c557600080fd5b506040518060400160405280600981526020017f5371756172654e465400000000000000000000000000000000000000000000008152506040518060400160405280600681526020017f535155415245000000000000000000000000000000000000000000000000000081525081600090805190602001906200054a92919062000683565b5080600190805190602001906200056392919062000683565b505050620005b16040518060400160405280601881526020017f54686973206973206d79204e465420636f6e74726163742e0000000000000000815250620005b760201b620012061760201c565b62000935565b6200065781604051602401620005ce919062000849565b6040516020818303038152906040527f41304fac000000000000000000000000000000000000000000000000000000007bffffffffffffffffffffffffffffffffffffffffffffffffffffffff19166020820180517bffffffffffffffffffffffffffffffffffffffffffffffffffffffff83818316178352505050506200065a60201b60201c565b50565b60008151905060006a636f6e736f6c652e6c6f679050602083016000808483855afa5050505050565b8280546200069190620008bf565b90600052602060002090601f016020900481019282620006b5576000855562000701565b82601f10620006d057805160ff191683800117855562000701565b8280016001018555821562000701579182015b8281111562000700578251825591602001919060010190620006e3565b5b5090506200071091906200077b565b5090565b82805482825590600052602060002090810192821562000768579160200282015b82811115620007675782518290805190602001906200075692919062000683565b509160200191906001019062000735565b5b5090506200077791906200079a565b5090565b5b80821115620007965760008160009055506001016200077c565b5090565b5b80821115620007be5760008181620007b49190620007c2565b506001016200079b565b5090565b508054620007d090620008bf565b6000825580601f10620007e4575062000805565b601f0160209004906000526020600020908101906200080491906200077b565b5b50565b600062000815826200086d565b62000821818562000878565b93506200083381856020860162000889565b6200083e8162000924565b840191505092915050565b6000602082019050818103600083015262000865818462000808565b905092915050565b600081519050919050565b600082825260208201905092915050565b60005b83811015620008a95780820151818401526020810190506200088c565b83811115620008b9576000848401525b50505050565b60006002820490506001821680620008d857607f821691505b60208210811415620008ef57620008ee620008f5565b5b50919050565b7f4e487b7100000000000000000000000000000000000000000000000000000000600052602260045260246000fd5b6000601f19601f8301169050919050565b613c5c80620009456000396000f3fe608060405234801561001057600080fd5b506004361061010b5760003560e01c806370a08231116100a2578063b88d4fde11610071578063b88d4fde146102dc578063c575757a146102f8578063c87b56dd14610328578063de9d132f14610358578063e985e9c5146103625761010b565b806370a082311461024257806395d89b4114610272578063a22cb46514610290578063b187301f146102ac5761010b565b806323b872dd116100de57806323b872dd146101aa5780632de38d68146101c657806342842e0e146101f65780636352211e146102125761010b565b806301ffc9a71461011057806306fdde0314610140578063081812fc1461015e578063095ea7b31461018e575b600080fd5b61012a600480360381019061012591906126ce565b610392565b6040516101379190612dfb565b60405180910390f35b610148610474565b6040516101559190612e16565b60405180910390f35b61017860048036038101906101739190612720565b610506565b6040516101859190612d6b565b60405180910390f35b6101a860048036038101906101a39190612692565b61058b565b005b6101c460048036038101906101bf919061258c565b6106a3565b005b6101e060048036038101906101db9190612720565b610703565b6040516101ed9190612e16565b60405180910390f35b610210600480360381019061020b919061258c565b61089f565b005b61022c60048036038101906102279190612720565b6108bf565b6040516102399190612d6b565b60405180910390f35b61025c60048036038101906102579190612527565b610971565b60405161026991906130c6565b60405180910390f35b61027a610a29565b6040516102879190612e16565b60405180910390f35b6102aa60048036038101906102a59190612656565b610abb565b005b6102c660048036038101906102c19190612720565b610ad1565b6040516102d39190612e16565b60405180910390f35b6102f660048036038101906102f191906125db565b610bef565b005b610312600480360381019061030d9190612720565b610c51565b60405161031f9190612e16565b60405180910390f35b610342600480360381019061033d9190612720565b610d6f565b60405161034f9190612e16565b60405180910390f35b610360610ec1565b005b61037c60048036038101906103779190612550565b611172565b6040516103899190612dfb565b60405180910390f35b60007f80ac58cd000000000000000000000000000000000000000000000000000000007bffffffffffffffffffffffffffffffffffffffffffffffffffffffff1916827bffffffffffffffffffffffffffffffffffffffffffffffffffffffff1916148061045d57507f5b5e139f000000000000000000000000000000000000000000000000000000007bffffffffffffffffffffffffffffffffffffffffffffffffffffffff1916827bffffffffffffffffffffffffffffffffffffffffffffffffffffffff1916145b8061046d575061046c8261129f565b5b9050919050565b6060600080546104839061335a565b80601f01602080910402602001604051908101604052809291908181526020018280546104af9061335a565b80156104fc5780601f106104d1576101008083540402835291602001916104fc565b820191906000526020600020905b8154815290600101906020018083116104df57829003601f168201915b5050505050905090565b600061051182611309565b610550576040517f08c379a000000000000000000000000000000000000000000000000000000000815260040161054790613026565b60405180910390fd5b6004600083815260200190815260200160002060009054906101000a900473ffffffffffffffffffffffffffffffffffffffff169050919050565b6000610596826108bf565b90508073ffffffffffffffffffffffffffffffffffffffff168373ffffffffffffffffffffffffffffffffffffffff161415610607576040517f08c379a00000000000000000000000000000000000000000000000000000000081526004016105fe90613086565b60405180910390fd5b8073ffffffffffffffffffffffffffffffffffffffff16610626611375565b73ffffffffffffffffffffffffffffffffffffffff16148061065557506106548161064f611375565b611172565b5b610694576040517f08c379a000000000000000000000000000000000000000000000000000000000815260040161068b90612f66565b60405180910390fd5b61069e838361137d565b505050565b6106b46106ae611375565b82611436565b6106f3576040517f08c379a00000000000000000000000000000000000000000000000000000000081526004016106ea906130a6565b60405180910390fd5b6106fe838383611514565b505050565b606060006107376107138461177b565b6040516020016107239190612d27565b604051602081830303815290604052611928565b90506107786040518060400160405280600d81526020017f72616e64202d20736565643a20000000000000000000000000000000000000008152508261195b565b600a80549050816107899190613406565b90506107ca6040518060400160405280601381526020017f72616e64202d20666972737420776f72643a20000000000000000000000000008152508261195b565b600a8181548110610804577f4e487b7100000000000000000000000000000000000000000000000000000000600052603260045260246000fd5b9060005260206000200180546108199061335a565b80601f01602080910402602001604051908101604052809291908181526020018280546108459061335a565b80156108925780601f1061086757610100808354040283529160200191610892565b820191906000526020600020905b81548152906001019060200180831161087557829003601f168201915b5050505050915050919050565b6108ba83838360405180602001604052806000815250610bef565b505050565b6000806002600084815260200190815260200160002060009054906101000a900473ffffffffffffffffffffffffffffffffffffffff169050600073ffffffffffffffffffffffffffffffffffffffff168173ffffffffffffffffffffffffffffffffffffffff161415610968576040517f08c379a000000000000000000000000000000000000000000000000000000000815260040161095f90612fa6565b60405180910390fd5b80915050919050565b60008073ffffffffffffffffffffffffffffffffffffffff168273ffffffffffffffffffffffffffffffffffffffff1614156109e2576040517f08c379a00000000000000000000000000000000000000000000000000000000081526004016109d990612f86565b60405180910390fd5b600360008373ffffffffffffffffffffffffffffffffffffffff1673ffffffffffffffffffffffffffffffffffffffff168152602001908152602001600020549050919050565b606060018054610a389061335a565b80601f0160208091040260200160405190810160405280929190818152602001828054610a649061335a565b8015610ab15780601f10610a8657610100808354040283529160200191610ab1565b820191906000526020600020905b815481529060010190602001808311610a9457829003601f168201915b5050505050905090565b610acd610ac6611375565b83836119f7565b5050565b60606000610b05610ae18461177b565b604051602001610af19190612cc0565b604051602081830303815290604052611928565b9050600b8054905081610b189190613406565b9050600b8181548110610b54577f4e487b7100000000000000000000000000000000000000000000000000000000600052603260045260246000fd5b906000526020600020018054610b699061335a565b80601f0160208091040260200160405190810160405280929190818152602001828054610b959061335a565b8015610be25780601f10610bb757610100808354040283529160200191610be2565b820191906000526020600020905b815481529060010190602001808311610bc557829003601f168201915b5050505050915050919050565b610c00610bfa611375565b83611436565b610c3f576040517f08c379a0000000000000000000000000000000000000000000000000000000008152600401610c36906130a6565b60405180910390fd5b610c4b84848484611b64565b50505050565b60606000610c85610c618461177b565b604051602001610c719190612c9e565b604051602081830303815290604052611928565b9050600c8054905081610c989190613406565b9050600c8181548110610cd4577f4e487b7100000000000000000000000000000000000000000000000000000000600052603260045260246000fd5b906000526020600020018054610ce99061335a565b80601f0160208091040260200160405190810160405280929190818152602001828054610d159061335a565b8015610d625780601f10610d3757610100808354040283529160200191610d62565b820191906000526020600020905b815481529060010190602001808311610d4557829003601f168201915b5050505050915050919050565b6060610d7a82611309565b610db9576040517f08c379a0000000000000000000000000000000000000000000000000000000008152600401610db090613006565b60405180910390fd5b6000600660008481526020019081526020016000208054610dd99061335a565b80601f0160208091040260200160405190810160405280929190818152602001828054610e059061335a565b8015610e525780601f10610e2757610100808354040283529160200191610e52565b820191906000526020600020905b815481529060010190602001808311610e3557829003601f168201915b505050505090506000610e63611bc0565b9050600081511415610e79578192505050610ebc565b600082511115610eae578082604051602001610e96929190612c1a565b60405160208183030381529060405292505050610ebc565b610eb784611bd7565b925050505b919050565b6000610ecd6008611c7e565b9050600754811115610f14576040517f08c379a0000000000000000000000000000000000000000000000000000000008152600401610f0b90613066565b60405180910390fd5b6000610f1f82610703565b90506000610f2c83610ad1565b90506000610f3984610c51565b90506000838383604051602001610f5293929190612c3e565b60405160208183030381529060405290506000600982604051602001610f79929190612c6f565b6040516020818303038152906040529050610fc86040518060400160405280601581526020017f0a2d2d2d2d2d205356472064617461202d2d2d2d2d0000000000000000000000815250611206565b610fd181611206565b61100f6040518060400160405280601581526020017f2d2d2d2d2d2d2d2d2d2d2d2d2d2d2d2d2d2d2d2d0a0000000000000000000000815250611206565b60006110438361101e84611c8c565b60405160200161102f929190612ce2565b604051602081830303815290604052611c8c565b90506000816040516020016110589190612d49565b60405160208183030381529060405290506110a76040518060400160405280601581526020017f0a2d2d2d2d2d20546f6b656e20555249202d2d2d2d0000000000000000000000815250611206565b6110b081611206565b6110ee6040518060400160405280601581526020017f2d2d2d2d2d2d2d2d2d2d2d2d2d2d2d2d2d2d2d2d0a0000000000000000000000815250611206565b6110f83389611e4a565b6111028882611e68565b611125604051806060016040528060258152602001613bc2602591398933611edc565b61112f6008611f7b565b7febb98688741ffa4c7589bf325de30cf7becb63de567842e1ccdb6cb949fdc82c3389604051611160929190612dd2565b60405180910390a15050505050505050565b6000600560008473ffffffffffffffffffffffffffffffffffffffff1673ffffffffffffffffffffffffffffffffffffffff16815260200190815260200160002060008373ffffffffffffffffffffffffffffffffffffffff1673ffffffffffffffffffffffffffffffffffffffff16815260200190815260200160002060009054906101000a900460ff16905092915050565b61129c8160405160240161121a9190612e16565b6040516020818303038152906040527f41304fac000000000000000000000000000000000000000000000000000000007bffffffffffffffffffffffffffffffffffffffffffffffffffffffff19166020820180517bffffffffffffffffffffffffffffffffffffffffffffffffffffffff8381831617835250505050611f91565b50565b60007f01ffc9a7000000000000000000000000000000000000000000000000000000007bffffffffffffffffffffffffffffffffffffffffffffffffffffffff1916827bffffffffffffffffffffffffffffffffffffffffffffffffffffffff1916149050919050565b60008073ffffffffffffffffffffffffffffffffffffffff166002600084815260200190815260200160002060009054906101000a900473ffffffffffffffffffffffffffffffffffffffff1673ffffffffffffffffffffffffffffffffffffffff1614159050919050565b600033905090565b816004600083815260200190815260200160002060006101000a81548173ffffffffffffffffffffffffffffffffffffffff021916908373ffffffffffffffffffffffffffffffffffffffff160217905550808273ffffffffffffffffffffffffffffffffffffffff166113f0836108bf565b73ffffffffffffffffffffffffffffffffffffffff167f8c5be1e5ebec7d5bd14f71427d1e84f3dd0314c0f7b2291e5b200ac8c7c3b92560405160405180910390a45050565b600061144182611309565b611480576040517f08c379a000000000000000000000000000000000000000000000000000000000815260040161147790612f46565b60405180910390fd5b600061148b836108bf565b90508073ffffffffffffffffffffffffffffffffffffffff168473ffffffffffffffffffffffffffffffffffffffff1614806114cd57506114cc8185611172565b5b8061150b57508373ffffffffffffffffffffffffffffffffffffffff166114f384610506565b73ffffffffffffffffffffffffffffffffffffffff16145b91505092915050565b8273ffffffffffffffffffffffffffffffffffffffff16611534826108bf565b73ffffffffffffffffffffffffffffffffffffffff161461158a576040517f08c379a000000000000000000000000000000000000000000000000000000000815260040161158190612ec6565b60405180910390fd5b600073ffffffffffffffffffffffffffffffffffffffff168273ffffffffffffffffffffffffffffffffffffffff1614156115fa576040517f08c379a00000000000000000000000000000000000000000000000000000000081526004016115f190612f06565b60405180910390fd5b611605838383611fba565b61161060008261137d565b6001600360008573ffffffffffffffffffffffffffffffffffffffff1673ffffffffffffffffffffffffffffffffffffffff16815260200190815260200160002060008282546116609190613270565b925050819055506001600360008473ffffffffffffffffffffffffffffffffffffffff1673ffffffffffffffffffffffffffffffffffffffff16815260200190815260200160002060008282546116b7919061318f565b92505081905550816002600083815260200190815260200160002060006101000a81548173ffffffffffffffffffffffffffffffffffffffff021916908373ffffffffffffffffffffffffffffffffffffffff160217905550808273ffffffffffffffffffffffffffffffffffffffff168473ffffffffffffffffffffffffffffffffffffffff167fddf252ad1be2c89b69c2b068fc378daa952ba7f163c4a11628f55a4df523b3ef60405160405180910390a4611776838383611fbf565b505050565b606060008214156117c3576040518060400160405280600181526020017f30000000000000000000000000000000000000000000000000000000000000008152509050611923565b600082905060005b600082146117f55780806117de906133bd565b915050600a826117ee91906131e5565b91506117cb565b60008167ffffffffffffffff811115611837577f4e487b7100000000000000000000000000000000000000000000000000000000600052604160045260246000fd5b6040519080825280601f01601f1916602001820160405280156118695781602001600182028036833780820191505090505b5090505b6000851461191c576001826118829190613270565b9150600a856118919190613406565b603061189d919061318f565b60f81b8183815181106118d9577f4e487b7100000000000000000000000000000000000000000000000000000000600052603260045260246000fd5b60200101907effffffffffffffffffffffffffffffffffffffffffffffffffffffffffffff1916908160001a905350600a8561191591906131e5565b945061186d565b8093505050505b919050565b60008160405160200161193b9190612c03565b6040516020818303038152906040528051906020012060001c9050919050565b6119f38282604051602401611971929190612e38565b6040516020818303038152906040527f9710a9d0000000000000000000000000000000000000000000000000000000007bffffffffffffffffffffffffffffffffffffffffffffffffffffffff19166020820180517bffffffffffffffffffffffffffffffffffffffffffffffffffffffff8381831617835250505050611f91565b5050565b8173ffffffffffffffffffffffffffffffffffffffff168373ffffffffffffffffffffffffffffffffffffffff161415611a66576040517f08c379a0000000000000000000000000000000000000000000000000000000008152600401611a5d90612f26565b60405180910390fd5b80600560008573ffffffffffffffffffffffffffffffffffffffff1673ffffffffffffffffffffffffffffffffffffffff16815260200190815260200160002060008473ffffffffffffffffffffffffffffffffffffffff1673ffffffffffffffffffffffffffffffffffffffff16815260200190815260200160002060006101000a81548160ff0219169083151502179055508173ffffffffffffffffffffffffffffffffffffffff168373ffffffffffffffffffffffffffffffffffffffff167f17307eab39ab6107e8899845ad3d59bd9653f200f220920489ca2b5937696c3183604051611b579190612dfb565b60405180910390a3505050565b611b6f848484611514565b611b7b84848484611fc4565b611bba576040517f08c379a0000000000000000000000000000000000000000000000000000000008152600401611bb190612ea6565b60405180910390fd5b50505050565b606060405180602001604052806000815250905090565b6060611be282611309565b611c21576040517f08c379a0000000000000000000000000000000000000000000000000000000008152600401611c1890613046565b60405180910390fd5b6000611c2b611bc0565b90506000815111611c4b5760405180602001604052806000815250611c76565b80611c558461177b565b604051602001611c66929190612c1a565b6040516020818303038152906040525b915050919050565b600081600001549050919050565b60606000825190506000811415611cb55760405180602001604052806000815250915050611e45565b60006003600283611cc6919061318f565b611cd091906131e5565b6004611cdc9190613216565b90506000602082611ced919061318f565b67ffffffffffffffff811115611d2c577f4e487b7100000000000000000000000000000000000000000000000000000000600052604160045260246000fd5b6040519080825280601f01601f191660200182016040528015611d5e5781602001600182028036833780820191505090505b5090506000604051806060016040528060408152602001613be7604091399050600181016020830160005b86811015611e025760038101905062ffffff818a015116603f8160121c168401518060081b905060ff603f83600c1c1686015116810190508060081b905060ff603f8360061c1686015116810190508060081b905060ff603f831686015116810190508060e01b90508084526004840193505050611d89565b506003860660018114611e1c5760028114611e2c57611e37565b613d3d60f01b6002830352611e37565b603d60f81b60018303525b508484525050819450505050505b919050565b611e6482826040518060200160405280600081525061215b565b5050565b611e7182611309565b611eb0576040517f08c379a0000000000000000000000000000000000000000000000000000000008152600401611ea790612fc6565b60405180910390fd5b80600660008481526020019081526020016000209080519060200190611ed79291906123b3565b505050565b611f76838383604051602401611ef493929190612e68565b6040516020818303038152906040527fe3849f79000000000000000000000000000000000000000000000000000000007bffffffffffffffffffffffffffffffffffffffffffffffffffffffff19166020820180517bffffffffffffffffffffffffffffffffffffffffffffffffffffffff8381831617835250505050611f91565b505050565b6001816000016000828254019250508190555050565b60008151905060006a636f6e736f6c652e6c6f679050602083016000808483855afa5050505050565b505050565b505050565b6000611fe58473ffffffffffffffffffffffffffffffffffffffff166121b6565b1561214e578373ffffffffffffffffffffffffffffffffffffffff1663150b7a0261200e611375565b8786866040518563ffffffff1660e01b81526004016120309493929190612d86565b602060405180830381600087803b15801561204a57600080fd5b505af192505050801561207b57506040513d601f19601f8201168201806040525081019061207891906126f7565b60015b6120fe573d80600081146120ab576040519150601f19603f3d011682016040523d82523d6000602084013e6120b0565b606091505b506000815114156120f6576040517f08c379a00000000000000000000000000000000000000000000000000000000081526004016120ed90612ea6565b60405180910390fd5b805181602001fd5b63150b7a0260e01b7bffffffffffffffffffffffffffffffffffffffffffffffffffffffff1916817bffffffffffffffffffffffffffffffffffffffffffffffffffffffff191614915050612153565b600190505b949350505050565b61216583836121d9565b6121726000848484611fc4565b6121b1576040517f08c379a00000000000000000000000000000000000000000000000000000000081526004016121a890612ea6565b60405180910390fd5b505050565b6000808273ffffffffffffffffffffffffffffffffffffffff163b119050919050565b600073ffffffffffffffffffffffffffffffffffffffff168273ffffffffffffffffffffffffffffffffffffffff161415612249576040517f08c379a000000000000000000000000000000000000000000000000000000000815260040161224090612fe6565b60405180910390fd5b61225281611309565b15612292576040517f08c379a000000000000000000000000000000000000000000000000000000000815260040161228990612ee6565b60405180910390fd5b61229e60008383611fba565b6001600360008473ffffffffffffffffffffffffffffffffffffffff1673ffffffffffffffffffffffffffffffffffffffff16815260200190815260200160002060008282546122ee919061318f565b92505081905550816002600083815260200190815260200160002060006101000a81548173ffffffffffffffffffffffffffffffffffffffff021916908373ffffffffffffffffffffffffffffffffffffffff160217905550808273ffffffffffffffffffffffffffffffffffffffff16600073ffffffffffffffffffffffffffffffffffffffff167fddf252ad1be2c89b69c2b068fc378daa952ba7f163c4a11628f55a4df523b3ef60405160405180910390a46123af60008383611fbf565b5050565b8280546123bf9061335a565b90600052602060002090601f0160209004810192826123e15760008555612428565b82601f106123fa57805160ff1916838001178555612428565b82800160010185558215612428579182015b8281111561242757825182559160200191906001019061240c565b5b5090506124359190612439565b5090565b5b8082111561245257600081600090555060010161243a565b5090565b600061246961246484613106565b6130e1565b90508281526020810184848401111561248157600080fd5b61248c848285613318565b509392505050565b6000813590506124a381613b65565b92915050565b6000813590506124b881613b7c565b92915050565b6000813590506124cd81613b93565b92915050565b6000815190506124e281613b93565b92915050565b600082601f8301126124f957600080fd5b8135612509848260208601612456565b91505092915050565b60008135905061252181613baa565b92915050565b60006020828403121561253957600080fd5b600061254784828501612494565b91505092915050565b6000806040838503121561256357600080fd5b600061257185828601612494565b925050602061258285828601612494565b9150509250929050565b6000806000606084860312156125a157600080fd5b60006125af86828701612494565b93505060206125c086828701612494565b92505060406125d186828701612512565b9150509250925092565b600080600080608085870312156125f157600080fd5b60006125ff87828801612494565b945050602061261087828801612494565b935050604061262187828801612512565b925050606085013567ffffffffffffffff81111561263e57600080fd5b61264a878288016124e8565b91505092959194509250565b6000806040838503121561266957600080fd5b600061267785828601612494565b9250506020612688858286016124a9565b9150509250929050565b600080604083850312156126a557600080fd5b60006126b385828601612494565b92505060206126c485828601612512565b9150509250929050565b6000602082840312156126e057600080fd5b60006126ee848285016124be565b91505092915050565b60006020828403121561270957600080fd5b6000612717848285016124d3565b91505092915050565b60006020828403121561273257600080fd5b600061274084828501612512565b91505092915050565b612752816132a4565b82525050565b612761816132b6565b82525050565b60006127728261314c565b61277c8185613162565b935061278c818560208601613327565b612795816134f3565b840191505092915050565b60006127ab82613157565b6127b58185613173565b93506127c5818560208601613327565b6127ce816134f3565b840191505092915050565b60006127e482613157565b6127ee8185613184565b93506127fe818560208601613327565b80840191505092915050565b600081546128178161335a565b6128218186613184565b9450600182166000811461283c576001811461284d57612880565b60ff19831686528186019350612880565b61285685613137565b60005b8381101561287857815481890152600182019150602081019050612859565b838801955050505b50505092915050565b6000612896603283613173565b91506128a182613504565b604082019050919050565b60006128b9602583613173565b91506128c482613553565b604082019050919050565b60006128dc601c83613173565b91506128e7826135a2565b602082019050919050565b60006128ff600a83613184565b915061290a826135cb565b600a82019050919050565b6000612922602483613173565b915061292d826135f4565b604082019050919050565b6000612945601983613173565b915061295082613643565b602082019050919050565b6000612968606383613184565b91506129738261366c565b606382019050919050565b600061298b600b83613184565b915061299682613707565b600b82019050919050565b60006129ae602c83613173565b91506129b982613730565b604082019050919050565b60006129d1600d83613184565b91506129dc8261377f565b600d82019050919050565b60006129f4603883613173565b91506129ff826137a8565b604082019050919050565b6000612a17602a83613173565b9150612a22826137f7565b604082019050919050565b6000612a3a602983613173565b9150612a4582613846565b604082019050919050565b6000612a5d602e83613173565b9150612a6882613895565b604082019050919050565b6000612a80600283613184565b9150612a8b826138e4565b600282019050919050565b6000612aa3602083613173565b9150612aae8261390d565b602082019050919050565b6000612ac6603183613173565b9150612ad182613936565b604082019050919050565b6000612ae9602c83613173565b9150612af482613985565b604082019050919050565b6000612b0c602f83613173565b9150612b17826139d4565b604082019050919050565b6000612b2f600a83613184565b9150612b3a82613a23565b600a82019050919050565b6000612b52601983613173565b9150612b5d82613a4c565b602082019050919050565b6000612b75602183613173565b9150612b8082613a75565b604082019050919050565b6000612b98600a83613184565b9150612ba382613ac4565b600a82019050919050565b6000612bbb601d83613184565b9150612bc682613aed565b601d82019050919050565b6000612bde603183613173565b9150612be982613b16565b604082019050919050565b612bfd8161330e565b82525050565b6000612c0f82846127d9565b915081905092915050565b6000612c2682856127d9565b9150612c3282846127d9565b91508190509392505050565b6000612c4a82866127d9565b9150612c5682856127d9565b9150612c6282846127d9565b9150819050949350505050565b6000612c7b828561280a565b9150612c8782846127d9565b9150612c92826129c4565b91508190509392505050565b6000612ca9826128f2565b9150612cb582846127d9565b915081905092915050565b6000612ccb8261297e565b9150612cd782846127d9565b915081905092915050565b6000612ced82612b22565b9150612cf982856127d9565b9150612d048261295b565b9150612d1082846127d9565b9150612d1b82612a73565b91508190509392505050565b6000612d3282612b8b565b9150612d3e82846127d9565b915081905092915050565b6000612d5482612bae565b9150612d6082846127d9565b915081905092915050565b6000602082019050612d806000830184612749565b92915050565b6000608082019050612d9b6000830187612749565b612da86020830186612749565b612db56040830185612bf4565b8181036060830152612dc78184612767565b905095945050505050565b6000604082019050612de76000830185612749565b612df46020830184612bf4565b9392505050565b6000602082019050612e106000830184612758565b92915050565b60006020820190508181036000830152612e3081846127a0565b905092915050565b60006040820190508181036000830152612e5281856127a0565b9050612e616020830184612bf4565b9392505050565b60006060820190508181036000830152612e8281866127a0565b9050612e916020830185612bf4565b612e9e6040830184612749565b949350505050565b60006020820190508181036000830152612ebf81612889565b9050919050565b60006020820190508181036000830152612edf816128ac565b9050919050565b60006020820190508181036000830152612eff816128cf565b9050919050565b60006020820190508181036000830152612f1f81612915565b9050919050565b60006020820190508181036000830152612f3f81612938565b9050919050565b60006020820190508181036000830152612f5f816129a1565b9050919050565b60006020820190508181036000830152612f7f816129e7565b9050919050565b60006020820190508181036000830152612f9f81612a0a565b9050919050565b60006020820190508181036000830152612fbf81612a2d565b9050919050565b60006020820190508181036000830152612fdf81612a50565b9050919050565b60006020820190508181036000830152612fff81612a96565b9050919050565b6000602082019050818103600083015261301f81612ab9565b9050919050565b6000602082019050818103600083015261303f81612adc565b9050919050565b6000602082019050818103600083015261305f81612aff565b9050919050565b6000602082019050818103600083015261307f81612b45565b9050919050565b6000602082019050818103600083015261309f81612b68565b9050919050565b600060208201905081810360008301526130bf81612bd1565b9050919050565b60006020820190506130db6000830184612bf4565b92915050565b60006130eb6130fc565b90506130f7828261338c565b919050565b6000604051905090565b600067ffffffffffffffff821115613121576131206134c4565b5b61312a826134f3565b9050602081019050919050565b60008190508160005260206000209050919050565b600081519050919050565b600081519050919050565b600082825260208201905092915050565b600082825260208201905092915050565b600081905092915050565b600061319a8261330e565b91506131a58361330e565b9250827fffffffffffffffffffffffffffffffffffffffffffffffffffffffffffffffff038211156131da576131d9613437565b5b828201905092915050565b60006131f08261330e565b91506131fb8361330e565b92508261320b5761320a613466565b5b828204905092915050565b60006132218261330e565b915061322c8361330e565b9250817fffffffffffffffffffffffffffffffffffffffffffffffffffffffffffffffff048311821515161561326557613264613437565b5b828202905092915050565b600061327b8261330e565b91506132868361330e565b92508282101561329957613298613437565b5b828203905092915050565b60006132af826132ee565b9050919050565b60008115159050919050565b60007fffffffff0000000000000000000000000000000000000000000000000000000082169050919050565b600073ffffffffffffffffffffffffffffffffffffffff82169050919050565b6000819050919050565b82818337600083830152505050565b60005b8381101561334557808201518184015260208101905061332a565b83811115613354576000848401525b50505050565b6000600282049050600182168061337257607f821691505b6020821081141561338657613385613495565b5b50919050565b613395826134f3565b810181811067ffffffffffffffff821117156133b4576133b36134c4565b5b80604052505050565b60006133c88261330e565b91507fffffffffffffffffffffffffffffffffffffffffffffffffffffffffffffffff8214156133fb576133fa613437565b5b600182019050919050565b60006134118261330e565b915061341c8361330e565b92508261342c5761342b613466565b5b828206905092915050565b7f4e487b7100000000000000000000000000000000000000000000000000000000600052601160045260246000fd5b7f4e487b7100000000000000000000000000000000000000000000000000000000600052601260045260246000fd5b7f4e487b7100000000000000000000000000000000000000000000000000000000600052602260045260246000fd5b7f4e487b7100000000000000000000000000000000000000000000000000000000600052604160045260246000fd5b6000601f19601f8301169050919050565b7f4552433732313a207472616e7366657220746f206e6f6e20455243373231526560008201527f63656976657220696d706c656d656e7465720000000000000000000000000000602082015250565b7f4552433732313a207472616e736665722066726f6d20696e636f72726563742060008201527f6f776e6572000000000000000000000000000000000000000000000000000000602082015250565b7f4552433732313a20746f6b656e20616c7265616479206d696e74656400000000600082015250565b7f54484952445f574f524400000000000000000000000000000000000000000000600082015250565b7f4552433732313a207472616e7366657220746f20746865207a65726f2061646460008201527f7265737300000000000000000000000000000000000000000000000000000000602082015250565b7f4552433732313a20617070726f766520746f2063616c6c657200000000000000600082015250565b7f222c20226465736372697074696f6e223a20224120686967686c79206163636c60008201527f61696d656420636f6c6c656374696f6e206f6620737175617265732e222c202260208201527f696d616765223a2022646174613a696d6167652f7376672b786d6c3b6261736560408201527f36342c0000000000000000000000000000000000000000000000000000000000606082015250565b7f5345434f4e445f574f5244000000000000000000000000000000000000000000600082015250565b7f4552433732313a206f70657261746f7220717565727920666f72206e6f6e657860008201527f697374656e7420746f6b656e0000000000000000000000000000000000000000602082015250565b7f3c2f746578743e3c2f7376673e00000000000000000000000000000000000000600082015250565b7f4552433732313a20617070726f76652063616c6c6572206973206e6f74206f7760008201527f6e6572206e6f7220617070726f76656420666f7220616c6c0000000000000000602082015250565b7f4552433732313a2062616c616e636520717565727920666f7220746865207a6560008201527f726f206164647265737300000000000000000000000000000000000000000000602082015250565b7f4552433732313a206f776e657220717565727920666f72206e6f6e657869737460008201527f656e7420746f6b656e0000000000000000000000000000000000000000000000602082015250565b7f45524337323155524953746f726167653a2055524920736574206f66206e6f6e60008201527f6578697374656e7420746f6b656e000000000000000000000000000000000000602082015250565b7f227d000000000000000000000000000000000000000000000000000000000000600082015250565b7f4552433732313a206d696e7420746f20746865207a65726f2061646472657373600082015250565b7f45524337323155524953746f726167653a2055524920717565727920666f722060008201527f6e6f6e6578697374656e7420746f6b656e000000000000000000000000000000602082015250565b7f4552433732313a20617070726f76656420717565727920666f72206e6f6e657860008201527f697374656e7420746f6b656e0000000000000000000000000000000000000000602082015250565b7f4552433732314d657461646174613a2055524920717565727920666f72206e6f60008201527f6e6578697374656e7420746f6b656e0000000000000000000000000000000000602082015250565b7f7b226e616d65223a202200000000000000000000000000000000000000000000600082015250565b7f4d696e74204661696c656420285570706572204c696d69742900000000000000600082015250565b7f4552433732313a20617070726f76616c20746f2063757272656e74206f776e6560008201527f7200000000000000000000000000000000000000000000000000000000000000602082015250565b7f46495253545f574f524400000000000000000000000000000000000000000000600082015250565b7f646174613a6170706c69636174696f6e2f6a736f6e3b6261736536342c000000600082015250565b7f4552433732313a207472616e736665722063616c6c6572206973206e6f74206f60008201527f776e6572206e6f7220617070726f766564000000000000000000000000000000602082015250565b613b6e816132a4565b8114613b7957600080fd5b50565b613b85816132b6565b8114613b9057600080fd5b50565b613b9c816132c2565b8114613ba757600080fd5b50565b613bb38161330e565b8114613bbe57600080fd5b5056fe416e204e465420772f20494420257320686173206265656e206d696e74656420746f2025734142434445464748494a4b4c4d4e4f505152535455565758595a6162636465666768696a6b6c6d6e6f707172737475767778797a303132333435363738392b2fa2646970667358221220ca54ebcc720c287dd270a14c1c4ba4fb1b3edda4306b6fef7f8b5f3f369fd36064736f6c634300080400333c73766720786d6c6e733d27687474703a2f2f7777772e77332e6f72672f323030302f73766727207072657365727665417370656374526174696f3d27784d696e594d696e206d656574272076696577426f783d273020302033353020333530273e3c7374796c653e2e62617365207b2066696c6c3a2077686974653b20666f6e742d66616d696c793a2073657269663b20666f6e742d73697a653a20323470783b207d3c2f7374796c653e3c726563742077696474683d273130302527206865696768743d2731303025272066696c6c3d27626c61636b27202f3e3c7465787420783d273530252720793d273530252720636c6173733d27626173652720646f6d696e616e742d626173656c696e653d276d6964646c652720746578742d616e63686f723d276d6964646c65273e",
  "linkReferences": {},
  "deployedLinkReferences": {}
}